:400000000080002011000000650900006509000080B500AF00F0D8FC80B500AF324B12221A6001F0E9F9314B180001F015FB012001F0F2F9302000F0D5FF2D4B2D4A1A609A
:400040002D4B8022D2051A602C4B2C4A126802210A431A602A4B2B4A1A602B4B00221A602A4B2A4A126808218A431A60FA23DB00180001F0A9F8264B180001F05DF9254B99
:40008000254A1A60254B264A1A60264BA022D2001A60224B244A1A60244B9C2252021A601E4B234A1A60234B802212061A60224B8022D2021A60214B42221A60204B4022C8
:4000C0001A60204B41221A601F4B1900082001F0C5F8082001F0E8F8074B8022D2051A60C046BD4680BDC04630001040001BB70004010B40060000800C020B4078002E40F4
:400100007C002E40BCBC000064F02E406CF02E40DC05000008030140005FEA000000014042FF00800003014040FF00800403014041FF008008010B4000010B403801014034
:4001400030010140040101406D15000080B582B000AF72B63E4B00221A603E4B01221A70FB1D00221A7022E0FB1D1A7813005B009B185B00384A9B183B603B681A785978EA
:4001800009020A43997809040A43DB781B06134318003B681A795B791B0213439BB2190000F07AFBFB1D1A78FB1D01321A70FB1D1B78012BD8D9294A294B1100180000F04B
:4001C0007BFB284B284A1A60284B294A1A60294B992212041A60284BA222D2051A60274B992212041A60264B8422D2031A60254B02221A60244B02221A60244A234B1B78D6
:40020000DBB23C218B43DBB214210B43DBB213701F4A1F4B1B78DBB216210B43DBB213701C4B20221A601C4BDB2212041A601B4B29221A601A4B1B4A1A601B4B20221A60B6
:40024000FFF7EAFE00F07AFBC046BD4602B080BD6CF02E401C700F40D836000004370000E436000000000240000030EE000102400330990000500F4008500F4010500F40D7
:4002800018500F402000104000800F4001700F4000700F4000000440080004400001044008010440061C03001801044010B5064C2378002B07D1054B002B02D0044800E0F7
:4002C00000BF0123237010BD600100200000000058360000084B10B5002B03D00749084800E000BF07480368002B00D110BD064B002BFBD09847F9E7000000006401002049
:4003000058360000C80000200000000080B500AF0C4B1B781A000C4B5200D35A180000F08DFD084B1B780133DAB2064B1A70054B1B7803221340DAB2024B1A70C046BD46AF
:4003400080BDC0467D010020CC000020B0B584B000AF0200BB1D1A800F23FB1800221A703CE00F23FB181A780F23FB181978324B4900CB5AFF218B4399B22F4B5200D15227
:400380000F23FB181C780F23FB181A782A4B5200D55ABB1D1B880A21180001F0F3F90B009BB21A00254B9B5C9BB22B4399B2224B6200D152BC1DBB1D1B880A21180001F0A3
:4003C0005BF903002380BB1D1B88002B0CD00F23FB181A780F23FB1801321A700F23FB181B78032BBDD900E0C0460F23FB181A780F23FB1801321A7015E00F23FB181A7881
:400400000F23FB1819780C4B4900CB5AFF210B4399B2094B5200D1520F23FB181A780F23FB1801321A700F23FB181B78032BE4D9C046BD4604B0B0BDCC0000205C3600005B
:4004400080B584B000AF78600021786801F09CFA031E04D07B688022120653407B602449786801F0A5FA031E01D0214B7B602149786801F0F1FD031CFC218905181C01F0D6
:40048000ABFA031C181C01F0FBFE0300FB60FB68002B01DA0023FB60FB68174A934201DD154BFB600A23FB18FA681A800A23FB181B881800FFF74AFF0923FB1801221A7081
:4004C0000923FB181B78032B0ED80923FB181A780923FB181978094B4900CB5A01218B4399B2064B5200D152C046BD4604B080BD9AF97944000020410F270000CC000020E5
:40050000B0B586B000AF7860396001237B6100233B610023FB600B23FB1800221A700A23FB1800221A700923FB1800221A7006E00923FB181A780923FB1801321A70092320
:40054000FB181B787A68D3181B78202BF0D00923FB181B787A68D3181B78092BE8D00923FB181B787A68D3181B782B2B07D00923FB181B787A68D3181B782D2B2CD109233A
:40058000FB181B787A68D3181B782D2B02D101235B427B610923FB181A780923FB1801321A7019E00B23FB1801221A703A6913009B009B185B0019000923FB181B787A688D
:4005C000D3181B78303BCB183B610923FB181A780923FB1801321A700923FB181B787A68D3181B782F2B07D90923FB181B787A68D3181B78392BD5D90923FB181B787A6862
:40060000D3181B782E2B07D00923FB181B787A68D3181B782C2B29D10923FB181A780923FB1801321A700923FB181B787A68D3181B782F2B1AD90923FB181B787A68D3189E
:400640001B78392B12D80923FB181B787A68D3181B78303BFB600A23FB1801221A700923FB181A780923FB1801321A700B23FB181B78002B06D10A23FB181B78002B01D141
:4006800000231EE0786901F01DFE041C386901F019FE051CF86801F015FE031C0B49181C01F010FB031C191C281C01F095F9031C191C201C01F0D0FC031C1A1C3B681A6065
:4006C00001231800BD4606B0B0BDC0460000204180B586B000AF62B600F072FB614B180000F00AFC00F00EFA642000F0FFFD0020FFF72CFEB0E000F0D7FA02001723FB18A0
:400700001A701723FB181B780D2B05D01723FB181B780A2B00D089E0534B1B78002B00D19AE0514B1B781A00504B002199544E4B00221A704D4B2E21180001F0B3FE031E54
:4007400006D14A4B2C21180001F0ACFE031E3AD03A1D464B11001800FFF7D2FE031E2DD07B68181CFFF76CFE7B684149181C01F073FC031CFC218905181C01F02DF9031C41
:40078000181C01F07DFD03003B613B690A21180000F0FCFF0300FB603B690A21180001F0DBF80B00BB60BB68FA683249324801F02DFE314B180000F097FA32E02F4B1800AB
:4007C00000F092FA2DE03A002D49284B180001F03FFE0300012B20D13B68002B02DA3B685B423B603B68274A934206DD3B682649180001F0B1F80B003B603B689BB2180024
:40080000FFF7A4FD3A6821491B4B180001F0FEFD194B180000F068FA03E01D4B180000F063FA1C4B180000F05FFA15E00E4B1B780E2B11D80C4B1B785A1CD1B20A4A1170AA
:4008400019000A4B1722BA1812785A541723FB181B78180000F096F900F084F9031E00D049E747E70D0300007C010020D40100200000204168360000B40100208036000068
:40088000983600000F270000102700009C360000AC360000C436000080B582B000AF786039603A687B680021180001F0A6FDC046BD4602B080BDC04680B586B000AF786086
:4008C000396000233B6100237B612FE07B699B007A68D3181B68BB600F23FB18BA681A70BB68FF229343BB6018E03B695B003A68D3181B781A00BB68D31819003B695B002B
:400900003A68D3185B780B703B6901333B610F23FB181A780F23FB18013A1A700F23FB181B78002BE1D17B6901337B617B69072BCCD9C046BD4606B080BDC04680B500AF3D
:40094000054B03221A60054B03221A60044B00221A60C046BD4680BD3000304030003140000E3F4080B500AF01F012FD03001B680C2B00D1FEE7FEE780B584B000AF78606E
:400980000F4B1A687B68D3181A000E4BD31A802B09DC0B4B1B68FB60094B1A687B68D218074B1A6007E001F0F3FC03000C221A6001235B42FB60FB681800BD4604B080BDFD
:4009C000D4000020E801002080B586B000AF224B7B61224B3B61204B7B6135E03B691B68FB603B695B68BB603B699B683B6000237B600CE0FB681A68BB681A60BB68043326
:400A0000BB60FB680433FB607B6804337B607A683B689A42EED13B69DB683B6000237B6008E0BB6800221A60BB680433BB607B6804337B607A683B689A42F2D13B691033F5
:400A40003B617B69013B7B617B69002BC6D101F0A5FCFFF73DFEFEE701000000FC3B000080B582B000AF154B144A126801218A431A6000237B600FE07B68032B04D8104B6C
:400A80007A689200D35800E00E4B0F4A796889008B507B6801337B607B682F2BECD9FFF755FB0A4B00221A60044B044A126801210A431A60C046BD4602B080BD000010404D
:400AC000000000006509000000000020C000002080B500AF00F06CF8C046BD4680BDC04680B500AF064B064A1268802109060A431A6000F019F800F01DF8C046BD4680BD42
:400B00000000244080B500AF064B1B78002B04D1FFF7DEFF034B01221A70FFF7E1FFC046BD4680BD7E01002080B500AFC046BD4680BDC04680B500AF00F09CF8C046BD465F
:400B400080BDC04680B582B000AF00237B60044B1B687B607B681800BD4602B080BDC0464003244080B582B000AF054B1B681F2213407B607B681800BD4602B080BDC0468C
:400B80000803244080B582B000AF7860C046064B1B681F221340082BF9D0044B7A681A60C046BD4602B080BD080224404002244080B500AF1B4B1C4A1A601C4B00221A608A
:400BC0001B4B1C4A1A601C4B1C4A1A601C4B07221A601C4B00221A601B4B01221A601B4B164A1A601A4B00221A601A4B04221A60194B00221A60194B00221A60184B00228D
:400C00001A60184B00221A60174B00221A60174B00221A60154B1B689AB2154B1A80C046BD4680BD000024400F000002400024404800244001000A00000324400700008012
:400C4000040324401003244044002440000224400402244050002440880E2440C80E2440480F2440080F2440C80F2440880F24408001002080B500AF074B074A12680749D4
:400C80000A40902109040A431A60054B054A12881A60C046BD4680BD00010240FFFF0FFF880F24408001002080B582B000AF00237B60FFF757FF031E03D0FFF743FF0300F2
:400CC0007B60084B1A68D8239B00134005D000237B60044BD82292001A607B681800BD4602B080BDC00F244080B584B000AF78600023FB6009E07A68FB68D3181B781800E1
:400D0000FFF740FFFB680133FB607A68FB68D3181B78002BEFD1C046BD4604B080BDC04680B500AF084B1F221A7000F0A1F800F065F800F073F8054B00221A70044B00223E
:400D40001A70C046BD4680BD81000F4082000F4080000F4090B583B000AFFC1D00F085FC03002370134A134B1B78DBB220210B43DBB21370104A104B1B78DBB210210B431E
:400D8000DBB213700D4A0D4B1B78DBB210210B43DBB21370FB1D1B78180000F06AFCFF2000F008F900F01EF800F022F8C046BD4603B090BD91000F4092000F4090000F40E3
:400DC00080B500AF064B1B78002B04D1FFF7A8FF034B01221A70FFF7BDFFC046BD4680BD8201002080B500AFC046BD4680BDC04680B500AFC046BD4680BDC04680B582B031
:400E000000AF054AFB1D12781A70FB1D1B781800BD4602B080BDC04662000F4080B582B000AF054AFB1D12781A70FB1D1B781800BD4602B080BDC04660000F4080B582B0BA
:400E400000AF0200BB1D1A80C046074B1B78DBB21A0004231340F8D0044ABB1D1B881380C046BD4602B080BD62000F4084100F4090B583B000AF01E01B4B1B881B4B1B7889
:400E8000DBB21A0020231340F6D1FC1D00F0EDFB03002370164A164B1B78DBB201210B43DBB21370124A124B1B78DBB201218B43DBB213700F4A0F4B1B78DBB201210B432A
:400EC000DBB213700B4A0B4B1B78DBB201218B43DBB21370FB1D1B78180000F0CAFBC046BD4603B090BDC046A4100F4060000F4092000F4093000F4080B582B000AF78602D
:400F000000F04EF87B68180000F00AF8032000F015F800F03BF8C046BD4602B080BDC04680B582B000AF7860034B7A685A64C046BD4602B080BDC0460000002090B585B0D9
:400F400000AF0200FB1D1A700E23FB600B23FC1800F08BFB030023700A4B0A4A12680A491140FA1D1078FA68904002000A431A600B23FB181B78180000F07BFBC046BD4688
:400F800005B090BD00E400E0FF3FFFFF80B500AF024B02221A60C046BD4680BD00E100E080B500AF024B02221A60C046BD4680BD80E100E080B582B000AF7860C046074BBD
:400FC0001B68002BFBDB054B7A68120204490A431A60C046BD4602B080BDC046000001404000008090B585B000AF78600C23FC1800F03BFB030023707B68022B00D8AFE09D
:401000007B68302B00D9ABE05C4B1B78DBB21A007B689A420AD35A4A0F23FB1812781A70584A0E23FB1812781A703FE0564B1B78DBB21A007B689A420AD3544A0F23FB1821
:4010400012781A70524A0E23FB1812781A702DE0504B1B78DBB21A007B689A420AD34E4A0F23FB1812781A704C4A0E23FB1812781A701BE04A4B1B78DBB21A007B689A4282
:401080000AD3484A0F23FB1812781A70464A0E23FB1812781A7009E0444A0F23FB1812781A70434A0E23FB1812781A707B68DA1E0B23FB183F498A5C1A700B23FB181B78E3
:4010C0002F2B0DD97B682A2B0AD93B4B19221A60052000F0C1FA0D23FB1819221A7007E0354B1B68DAB20D23FB183F210A401A700B23FA180D23FB1812781B789A4208D23F
:401100002D4B7A68033A2B498A5C1A60052000F0A3FA2A4B7A6826498C4662441278D2B21A60274B0F22BA1812781A60254B0E22BA1812781A60052000F0FEF80B23FA1892
:401140000D23FB1812781B789A420CD91A4B7A68033A18498A5C1A60052000F07DFA02E0002000F0B7F80C23FB181B78180000F080FAC046BD4605B090BDC04640F3FF0F33
:4011800041F3FF0F42F3FF0F43F3FF0F44F3FF0F45F3FF0F46F3FF0F47F3FF0F48F3FF0F49F3FF0F4AF3FF0F4BF3FF0F4CF3FF0F4DF3FF0F283900002CFF0B4028FF0B403E
:4011C0001CFF0B4020FF0B4080B584B000AF78600023FB60154B154A126801210A431A60134B144A1A60144B134A1268802109020A431A607B68002B12D01023FB600CE046
:40120000012000F099F800F019F8031E02D00023FB6005E07B68013B7B607B68002BEFD1FB681800BD4604B080BDC04660F02E4078002E400220000010002E4080B582B0CD
:4012400000AF054B1B68012213407B607B681800BD4602B080BDC0460C002E4080B584B000AF02003960FB1D1A7080239B05FB60FB1D1B781F2B02D9002000F02BF8FB1D20
:401280001B7810339B00FA68D3181B68BB60FB1D1B7810339B00FA68D3183A681A60BB681800BD4604B080BD80B582B000AF0200FB1D1A70064BFA1D12781F210A40012159
:4012C00091400A001A60C046BD4602B080BDC04600E100E080B582B000AF0200FB1D1A7001BEC046BD4602B080BDC04680B582B000AF786009E00D4B1B68180000F0ACF904
:401300007B680B4A944663447B607A6880231B029A42F0D8074B1B687A685343180000F09BF9C046BD4602B080BDC046E40000200080FFFFDC00002080B582B000AF020056
:40134000BB1D1A80BB1D1B88044A12785343180000F082F9C046BD4602B080BDE000002080B500AF0F4B0F4A126801218A431A600C4B0C4A126802218A431A600A4B0A4AE3
:40138000126830218A4310210A431A60064B064A126807218A4301210A431A60C046BD4680BDC04600F02E4000FF2E4080B500AF0F4B0F4A126802218A431A600D4B0D4A63
:4013C000126807218A4302210A431A60094B094A126830218A4320210A431A60044B044A126801210A431A60C046BD4680BDC04600F02E4000FF2E4080B500AFFFF7B0FFAD
:40140000044B044A1268802109060A431A60C046BD4680BD00F02E4080B584B000AF78600C4B1B6801221340FB607B68002B02D0012B03D005E0FFF793FF06E0FFF7B6FF02
:4014400003E00020FFF746FFC046FB681800BD4604B080BD00F02E4090B583B000AFFC1D00F003F903002370074B074A1268C02109020A431A60FB1D1B78180000F0F9F825
:40148000C046BD4603B090BD00010B4080B500AF054B1A68C0231B02134001D0012300E000231800BD4680BD00010B4090B583B000AFFC1D00F0D9F8030023700D4B0D4AEC
:4014C00012680D490A408021C9010A431A60094B084A126808490A40802109020A431A60FB1D1B78180000F0C4F8C046BD4603B090BDC04600010B40FF3FFFFF90B585B0F2
:4015000000AF78600B23FC1800F0AFF803002370FFF7BCFF031E04D00123FB60FFF7C6FF01E00023FB607B680D4A13407B600D4B0C4A12680C4911407A680A431A60094B43
:401540001B68FB68012B01D1FFF786FF0B23FB181B78180000F08DF8C046BD4605B090BD0404040010020B40FBFBFBFF80B500AF344B1B68042213401FD0334B1B680422D2
:40158000134017D0314B1B6804221340DA432E4B1B681A402C4B1A602C4B1B68042293431A002A4B1A602A4B1B68002B02D0284B1B6898470420FFF7A1FF224B1A68802300
:4015C000DB00134022D0204B1A688023DB00134017D01E4B1A688023DB001340DA431A4B1B681A40184B1A60184B1B68194A1A40164B1A60164B5B68002B02D0144B5B686D
:4016000098478023DB001800FFF778FF0D4B1A688023DB02134011D00B4B1A688023DB02134006D00A4B9B68002B02D0084B9B6898478023DB021800FFF760FFC046BD4639
:4016400080BDC04610020B40F00000208C01002090010020FFFBFFFF0230800803D00138FDD1C046C046C0467047EFF3108072B6704780F310887047002243088B4274D373
:4016800003098B425FD3030A8B4244D3030B8B4228D3030C8B420DD3FF22090212BA030C8B4202D31212090265D0030B8B4219D300E0090AC30B8B4201D3CB03C01A52412B
:4016C000830B8B4201D38B03C01A5241430B8B4201D34B03C01A5241030B8B4201D30B03C01A5241C30A8B4201D3CB02C01A5241830A8B4201D38B02C01A5241430A8B4202
:4017000001D34B02C01A5241030A8B4201D30B02C01A5241CDD2C3098B4201D3CB01C01A524183098B4201D38B01C01A524143098B4201D34B01C01A524103098B4201D335
:401740000B01C01A5241C3088B4201D3CB00C01A524183088B4201D38B00C01A524143088B4201D34B00C01A5241411A00D20146524110467047FFE701B5002000F0F0F8DC
:4017800002BDC0460029F7D076E7704703460B437FD4002243088B4274D303098B425FD3030A8B4244D3030B8B4228D3030C8B420DD3FF22090212BA030C8B4202D312129A
:4017C000090265D0030B8B4219D300E0090AC30B8B4201D3CB03C01A5241830B8B4201D38B03C01A5241430B8B4201D34B03C01A5241030B8B4201D30B03C01A5241C30A7A
:401800008B4201D3CB02C01A5241830A8B4201D38B02C01A5241430A8B4201D34B02C01A5241030A8B4201D30B02C01A5241CDD2C3098B4201D3CB01C01A524183098B4237
:4018400001D38B01C01A524143098B4201D34B01C01A524103098B4201D30B01C01A5241C3088B4201D3CB00C01A524183088B4201D38B00C01A524143088B4201D34B00D0
:40188000C01A5241411A00D201465241104670475DE0CA0F00D04942031000D34042534000229C4603098B422DD3030A8B4212D3FC22890112BA030A8B420CD38901921145
:4018C0008B4208D3890192118B4204D389013AD0921100E08909C3098B4201D3CB01C01A524183098B4201D38B01C01A524143098B4201D34B01C01A524103098B4201D3A7
:401900000B01C01A5241C3088B4201D3CB00C01A524183088B4201D38B00C01A5241D9D243088B4201D34B00C01A5241411A00D20146634652415B10104601D34042002B25
:4019400000D54942704763465B1000D3404201B5002000F005F802BD0029F8D016E770477047C0468446081C6146FFE71FB500F02FFB002801D40021C8421FBD10B500F0E1
:40198000BBFA4042013010BD10B500F021FB002801DB002010BD012010BDC04610B500F017FB002801DD002010BD012010BDC04610B500F0C9FA002801DC002010BD012003
:4019C00010BDC04610B500F0BFFA002801DA002010BD012010BDC046F8B54A02430244004E00C50F240E28009B09360EC90F92098D4259D0A01B002800DC8DE0002E1AD12C
:401A0000002A00D079E05A0704D00F221A40042A00D004335A0138D50134FF2C00D189E028009B015B0AE4B25B02E4055B0A2343C0071843F8BDFF2CE5D08021C9040A431A
:401A40001B2800DD89E016002021C640081A8240511E8A4132439B1A5A0114D59B019E09300000F077FC05388640844265DC041B330020200134E340041BA640721E9641BE
:401A800000243343BFE75A07BFD1DF082800FF2C2FD1002F00D187E08022D20313003B435B025B0AFF24BFE7A11B002949DD002E29D0FF2CA7D08026F60432431B2900DDB7
:401AC0008DE017002026CF40711A8A40511E8A413A439B185A01D6D50134FF2C64D0012276491A405B080B4013438CE7031ECAD100207B025B0AE4B296E701380028AAD055
:401B0000FF2C9DD17FE7002A00D17CE701390029DFD0FF2CD2D176E7002820D1601CC0B2012853DD80279E1AFF0437402FD0D61A0D0095E72800002376E7614B241A334055
:401B400061E700294DD1611CCEB2012E2FDDFF292AD09B185B080C0055E701227BE7002C1BD1002B5BD0C04300280CD0FF2E7ED01B2800DD92E01D002024C540201A8340B4
:401B8000581E83412B43D31A34000D0064E7002E00D065E700200024ABE7FF2E67D08024E40440422343E3E7FF2400233CE7002C61D1002B7ED0002A00D124E79B185A01EE
:401BC00000D460E73E4A0C0013401CE7002C1ED1002B2FD1002A66D013000D0013E7012277E7002C1FD1002B5AD0C94300290BD0FF2E50D01B295FDC1F002024CF40611A65
:401C00008B40591E8B413B439B18340062E7002B1CD1002A4AD013000D00FF24F3E6130034000D00EFE6FF2E35D08024E40449422343DFE7002A00D1E5E68027981AFF04B0
:401C4000074000D152E7D31A0D00DCE6FF24002A00D1D8E68020DB08C003034204D0D208024201D113000D00DB00FF24CBE61300FF240D00C7E6002B0DD0FF24002A00D147
:401C8000C1E68021DB08C9030B42EDD0D2080A42EAD11300E8E71300FF24B4E6012372E713003400AFE60027002022E780270020FF03F1E61300A6E60123A5E7FFFFFF7D7E
:401CC000FFFFFFFBF0B5564644465F464D46F0B444024600C70F83B08846650A360EBA463DD0FF2E22D00023EC00802599469B46ED0425437F3E43465C025800DB0F640AE2
:401D0000000E984636D0FF2830D080230021E400DB041C437F38301A0190484642460843724E800030587A4013008746002D44D108239946063B9B46DDE70122FF200024B7
:401D40001A406402C305640AD2071C431443200003B03CBC90469946A246AB46F0BD002D20D104239946033B9B46C4E7002C17D1022102E0002C0AD10121321A01924A4639
:401D800043460A435A48920082587B409746200000F0E0FA431F76309C4040420021BAE70321B8E7280000F0D5FA431F9D4000237630464299469B469DE70C239946093BC5
:401DC0009B4698E780240022E403FF20B9E70024C2468B465A465346022AAED0032A7DD0012A31D1012200201A400024A9E70122101A1B2856DD1A4000200024A1E78023B3
:401E0000DB031D424BD18023DB032B435C02640A3A00FF2095E76D016001854230D2019A0024013A01921B220127290064006D00002901DBA84201D82D1A3C43013A002A42
:401E4000F3D16A1E95412C4301987F300028CEDD620704D00F222240042A00D00434220103D5244A019814408030FE2800DD64E70122A401640AC0B21A4062E72C00A9E755
:401E80002D1A1A220124CFE76B02BCD500248023DB031C436402640A4246FF2051E71C42B3D1F4E721002022C140101A8440621E94410C43620704D00F222240042A00D08E
:401EC0000434620104D5012201201A40002438E70122A401640A1A40002032E78023DB031C436402640A5246FF202AE75839000098390000FFFFFFF7430270B542004C00FA
:401F00005D0AC30F4802120E460A240EC90FFF2A0FD0FF2C11D00120A24200D070BDB542FCD18B420DD0002AF8D12800431E9841F4E70120002DF1D1EBE70120002EEDD101
:401F4000E9E70020EAE7C0464302F0B542005D0AC30F4802440A4800120E000EC90FFF2A1FD0FF2822D0002A09D16E426E4100280FD1002C0DD10020002D09D005E0002876
:401F800001D1002C01D08B4213D0584201231843F0BD002EF7D048424141012049420843F6E7002DDDD002204042F1E7002CDAD0F9E78242E9DC04DBA542E6D80020A542E7
:401FC000E6D25842434101205B421843E0E7C0464302F0B542004C005E0AC30F4802120E450A240EC90FFF2A17D0FF2C19D0002A0BD170427041002C17D0002807D0484287
:402000004141012049420843F0BD002C13D08B4214D0584201231843F6E70220002EF3D1E3E70220002DEFD1E1E7002DE5D10020002EE9D0EDE7002DE9D1EAE7A242E8DCF1
:4020400004DBAE42E5D80020AE42DDD25842434101205B421843D7E7F0B557464E4645464300E0B446028846760A1F0EC40F002F47D0FF2F25D0002380259A469946F6006C
:40208000ED042E437F3F434642465D02D20F5B006D0A1B0E904640D0FF2B39D080220020ED00D20415437F3BFB1842465746591C62408C4607430F2F5CD86F49BF00C9598E
:4020C0008F46002E45D108239A46063B9946DAE7424602282DD0032800D1C3E0012800D0A2E0002500260240D4B27602ED05760A2E43E407264330001CBC90469946A246AB
:40210000F0BD002E1AD104239A46033B9946BAE72A00511E8A41901CC6E70120002DC3D0280000F017F9431F76309D4043420020BAE70124FF2514400026D6E7300000F083
:4021400009F9431F9E400023763047429A46994699E70C239A46093B994694E780260024F603FF25C1E735004846B2E7350022004846AEE72904090C0800370C3604360C71
:402180002C0C7943704367437443060C64183619B14203D980214902884647440004000C310409188D01681E8541890E2943350CED19AD010D43290104D5012369081D40A9
:4021C00063460D4319007F31002925DD680704D00F202840042800D00435280103D5274980330D401900FE29A3DC0124AD016E0A1440CDB279E78020C003064207D005426C
:4022000005D128434602760A4446FF256DE706437602760AFF2568E70124611A1B2905DD14400025002660E76346CBE72E002023CE40591A8D406B1E9D412E43730704D0F3
:402240000F233340042B00D00436730104D5012401251440002648E70124B601760A1440002542E780260124F6032E437602760A1440FF2539E7C046D8390000FFFFFFF771
:402280004302590A4300C20F1B0E00207E2B0EDD9D2B0DDC802000040143952B0BDC9620C31AD9400B005842002A00D118007047034BD018FBE7963B99400B00F3E7C0467D
:4022C000FFFFFF7F70B5002830D0C317C5185D40C40F280000F03EF89E231B1A962B0DDC9622D21A95406A02520AD8B25202C005520AE40702432243100070BD992B19DC35
:402300009922D21A9540124A2A40690704D00F210D40042D00D00432510103D50C4B1A409F231B1A9201520AD8B2DFE7002400200022DBE705222E00121AB921D6402A008F
:40234000C91A8A40551EAA4135001543DBE7C046FFFFFFFB1C2101231B04984201D3000C10391B0A984201D3000A08391B09984201D30009043902A2105C40187047C04627
:4023800004030202010101010000000000000000014B18687047C046540100200E4B70B500251E000D4CE41AA410A54204D0AB00F35898470135F8E701F00EFC084B00252C
:4023C0001E00084CE41AA410A54204D0AB00F35898470135F8E770BDE43B0000E43B0000E43B0000EC3B0000002310B59A4203D0CC5CC4540133F9E710BD03008218934239
:4024000002D019700133FAE7704700000EB410B59DB002A9029008610B48822488604861012040421FABC881084804CBA400006801938C8100F0AEF80023029A13701DB04A
:4024400010BC08BC03B01847FFFFFF7F540100200EB4812370B59DB002AC21AD9B0040CDA3810290069000F02BF80B4B606063620023606109486363A364013BE3813200BF
:402480002B0021000068019500F0DEF91DB070BC08BC03B01847C046A124000054010020002070470200C9B21378002B03D0994204D00132F8E71800002900D11000704785
:4024C0000023C25C0133002AFBD1581E70470000F0B58E6885B007000C00039201939E4243D890238A89DB001A423ED003250969236801985B1A029363695D43EB0F5D198E
:40250000029B6D1001331B18AB4200D91D00530510D52900380000F0F9FF061E14D0029A2169FFF761FFA289194B134080221343A38112E02A00380001F048F8061E0CD1A9
:402540002169380000F096FF0C23402201203B60A38940421343A38117E0029B2661F61826606561019EED1AA560019BB34200D21E0032000399206800F067FF0020A36827
:402580009B1BA36023689E19266005B0F0BDC0467FFBFFFFF0B59FB0029005938B890F0016001B0610D50B69002B0DD1402100F0ADFF38603861002804D10C23029A0138B1
:4025C0001360D8E040237B61002306AD6B6120336B761033AB7634002378002B03D1A31B049312D003E0252BF9D00134F4E7A31B320039000298FFF76BFF431C00D1B4E03F
:402600006A69049B944663446B612378002B00D1ABE00122002352426A6002A95432521801342B60EB60AB601370AB65534E21780522300000F0FEFE002807D00123801B96
:4026400083402A68013413432B60EFE72B68DA0604D55322202102A8121811701A0704D553222B2102A81218117022782A2A03D0099B00200A210EE0059A111D1268059137
:40268000002A01DB099204E05242EA60022213432B6001340BE02278303A092A04D84B4301349B180120F6E7002800D0099323782E2B1ED163782A2B0AD1059B02341A1D7C
:4026C0001B680592002B01DA01235B42079310E000230A201A0001346B6021783039092904D84243013452180123F6E7002B00D00792234E21780322300000F09BFE00282F
:4027000006D04023801B83402A68013413432B60217806221B48661C297600F08BFE002812D0194B002B06D10722059B073393430833059314E005AB00933A00134B290088
:40274000029800E000BF07E005AB00933A000F4B2900029800F064FA0390039B013304D06B69039A9B186B6135E7BB890B985B0601D5012040421FB0F0BDC0461A3A000075
:40278000203A0000243A000000000000D124000070B50E0014004B1C02D10120404232E0938920229343626BA381CDB26368002A0ED0A26B934205DA2368013B23601E7026
:4027C000636810E0210000F0F7FD0028F4D0E4E721692268002908D0914206D2511E0878854202D1216001330BE023642300443363630323A36323004633E2631E70236074
:4028000001232800636070BD10B50C00496B00290ED023004433994201D000F02BFE0020236C60636360834202D0E36B236009E0236920222360002301206360A3894042E5
:402840001343A38110BD0000F0B5B84C0D00A54403930023009048934993862005AB4A93BE234000019202A9B14A5B000918CA5004331E00AF4A02A90918CA50019B1A78ED
:40288000002A00D149E10821AB4C23689B185B780B4023D06B68002B11DD2B6821681A788A18082152780A4214D0499A01330292013249926A682B60013A6A60EAE7862291
:4028C00002AB52009B189B5929000098029398470028E2D0019F01370197CFE7019914004F1C252A55D1479345934B782A2B02D11A3B459301373C000A2221780B00303BF6
:40290000092B07D8479B013401935343303B59184791F2E7894F0322380000F08BFD002807D00123C01B8340459A0134134301924593671C2478672C18D8652C00D38BE002
:40294000472C08D8452C00D386E0002C00D1E6E0252C1ED082E05B2C56D002D8582C41D07CE0632C5ED0642C45D077E0702C33D007D86E2C5ED040D8692C6FD10023469396
:4029800040E0752C37D0782C2CD00223732C47D064E06B68002B0EDD2B681A78944200D0BBE001336A682B60499B013A019301336A60499390E7862202AB52009B189B595E
:4029C00029000098019398470028E5D04898002800D09EE00138A4E0459B01932023019A13434593459B01938023019A9B0013434593102302E00A2300E00823469304236B
:402A00006E2C0DDC03230BE0390005A800F08CFB459B070001934023019A1343459301234B931FE0459B01934023019A134345930023F5E74599CB0600D54DE7039B499A25
:402A4000C80704D5191D03911B681A8044E7191D03911B681A603FE70523E1E703234B93073346936B68002B04DD459B01935B0617D51FE0862202AB52009B189B59290092
:402A80000098019398470028EFD09FE7499A0192013249926A68013A6A60002A14DD01332B602B6824491A7809688A18082152780A42EBD14B9B022B12DC03AB2A0045A902
:402AC000009800F0CFF91EE0862202AB52009B189B5929000098019398470028E1D075E7042B06DC03AB2A0045A9009800F01CFA09E0134B002B00D1EEE603AB2A0045A97F
:402B0000009800E000BF012807D0022800D0E3E65CE7AB895B0604D501E0489801E001204042A7239B009D44F0BDC04664FDFFFF912700000928000058010020203A000091
:402B400000000000F7B5170001938A680B6900900C00934200DA130022003B6043321278002A01D001333B6023689B0602D53B6802333B60062523681D401ED023004333A4
:402B80001B785A1E9341226892061CD53020E1184331087021005A1C45310978A2184332023311700FE022000123193201990098089EB047431C0ED00135E3683A689B1A17
:402BC0009D42F0DBDAE72200019943320098089DA847431C02D10120404220E006232068E1683A6803400025042B03D18D1AEB43DB171D40A3682269934201DD9B1AED180A
:402C00000027BD420AD0220001231A3201990098089EB047431CDED00137F2E70020FEBDF0B58BB006920A0043320793059004920A7E0C00109B6E2A00D1ABE011D8632AD5
:402C400022D009D8002A00D1B5E0582A00D0C5E045310A70814A4FE0642A1DD0692A1BD0BCE0732A00D1AAE009D86F2A29D0702A00D0B3E0202209680A43226037E0752ADB
:402C80001FD0782A33D0A9E00E001A684236111D196013683370A4E021681A68080606D4490604D5111D19600023D55E02E0111D19601568002D3BDA2D23049A6D42137026
:402CC00036E021681A68080606D4490604D51568111D1960ADB202E0111D196015685F4B227E039308276F2A1DD00A271BE022007821453211705A4A19680392081D22683D
:402D000018600D68100602D4500600D5ADB2D30702D520231A4322601027002D03D1202322689A4322602300002243331A7002E00A274A4B03936368A360002B09DB042273
:402D4000216891432160002D05D1049E002B11D07BE0002D79D0049E28003900FEF712FD039B013E5B5C280033703900FEF784FC051EF1D1082F09D12368DB0706D56368D6
:402D80002269934202DC3023013E3370049B9B1B23612BE009681A68080607D4490605D5111D19601368A28A1A8004E0111D1960136862691A600023049E236116E01A68C3
:402DC000111D1960166800216268300000F032FB002801D0801B6060636803E0260042363270012323610023049A1370079B09AA00932100069B0598FFF7A4FE431C02D137
:402E00000120404227E02369320006990598079DA847431CF4D0236800259B070FD4099BE068984217DA180015E022000123193206990598079EB047431CE1D00135E36845
:402E4000099A9B1A9D42F0DBE9E72600039B42361B7833708EE70BB0F0BDC0462B3A00003C3A0000F7B515008A6801900C00002A06D18A69511E8A41012152420A43A260CD
:402E80002268D20603D41A68111D196017680026A06900281ED1102223680136134203D12B681B783B7001372A686B6801322A60A268013B013A6B60A260002A1ED0002B12
:402EC000E6DCC0235B00E3582900019898470028DED013E0012806D12B6862691B78D35C002BD8D11AE0022808D12B680D4A1B781268D31808225B781342CCD010232268AF
:402F0000134006D1E2680132E260A269002A00D03B70236900209E19266101E0002EEDD1FEBDC04658010020F0B50C008DB00293774B0590160009AA23CB23C2754B069338
:402F4000A369032B01D0744B0693AE220020A3685200591E0490914205D95E3BFF3B04935E23FF33A36023001C330193D023002722681B0113432360019B0393336809A8A8
:402F80001978BB000222185800F054FA00283BD0012F0DD16368002B06D1083322686360F933FF33134323605C4B226813400EE0022F0DD1C02180222368C90019409200E3
:402FC000914224D1F13AFF3A6260F03213432360A3685A1EA260002B16D0039B5D1C33685A1C32601B78039A039513707368013B7360002B08DCC0235B00E358310005980D
:4030000007939847002847D10137032FB6D16368002B01D10A3363601021002763686069C91A3F4BC91800F07FF8039DA368002B33D0326860691178405C00282DD030299E
:403040000DD1802021680001014208D0049A0137002A0BD0013A01330492A36006E02168304B0B40236013782B7001357368013B7360002B03DD33680133336008E0C02314
:403080005B00E3583100059803939847002804D1A368013BA360C9E700272368DB050ED5019B9D4207D9BE23013D5B002978E358320005989847019B01209D4225D01022A9
:4030C00023681A401AD12A70636801990598069EB047029B22681B68910607D4D10705D502991A1D0A601B68188004E002991A1D0A601B681860E3680133E3600020019B0B
:40310000ED1A2369ED195D1925610DB0F0BDC046503A00008D310000B1320000FFFAFFFF5C3A0000FFF6FFFF70B50B785E2B02D04A1C002502E001254B788A1C0100441C7F
:40314000FF340D700131A142FBD1002B01D1501E1BE001214D401100C5540C784A1C2D2C07D05D2C10D0002C01D02300F3E708000BE04E785D2EF8D0B342F6DC02310133C8
:40318000C5549E42FBDCE8E7100070BDF0B51E00454B87B01B680192029308220B00059003911C7802995D1C09194878104001D02B00F6E72D2C04D19D1C5C78012300937B
:4031C00004E000902B2C01D15C789D1C002E02D0102E0AD162E0302C5ED120222B789343582B54D110266C780235009F31007B1E9F412E4BFF183800FEF7C4FA380004917A
:403200003100FEF739FA00230322070094461800029A121951780422114201D0303C07E06246114017D03722012900D02032A41AA64210DD5A1C0BD0B84207D802D1049B13
:403240009C4203DC70430123201801E001235B422C780135DCE75A1C0BD10098059A431E9841124BC01822231360019B002B0AD117E0009A002A00D04042019A002A10D03F
:40328000039A002B00D06A1E019B1A6009E03024002EAAD10826A8E70A26A6E7302C9CD0A3E707B0F0BDC04658010020FFFFFF7FF0B51E003F4B87B01B680491029317007F
:4032C0000B00082105901C78029A5D1C121952780A4001D02B00F6E72D2C04D19D1C5C780123019304E001922B2C01D15C789D1C002E02D0102E0AD157E0302C53D1202292
:403300002B789343582B49D110266C780235012031004042FEF7B0F90390012031004042FEF730FA00238C461800029A121951780422114201D0303C07E00322114017D097
:403340003432012900D02032A41AA64210DD002B09DB039B984206D801D1644503DC70430123201801E001235B422C780135DCE7002B07DA22230120059A40421360002FC6
:4033800009D115E0019A002A00D04042002F0FD0049A002B00D06A1E3A6009E03024002EB5D10826B3E70A26B1E7302CA7D0AEE707B0F0BD580100200B00F7B54D6B4433B2
:4033C0000C009D421BD18026F600310000F09EF8002802D10120404225E023006063A66346331A78104BC254230045331A780F4BC2542A780E4BC254C018206012E08E6BA4
:40340000290073001A00019300F0E0F8051EE1D08719010032003800FEF7E6FF019B27606563A3630020FEBDFF030000FE030000FD030000C9B28218904204D003788B42EF
:4034400002D00130F8E70020704710B5884202D98B18984201D3002305E09B1A013A08D3995C8154FAE7934203D0CC5CC4540133F9E710BD70B50500002944D00C1F236874
:40348000002B00DAE418280000F0D8F81E4A13681100002B02D16360146031E0A3420DD92268A018834203D118685B688218226063600C6024E0A24203D813005A68002AF3
:4034C000F9D11E689819A0420BD12168711858181960824214D110685268411819605A600EE0A04202D90C232B6009E021686018824203D1106852684118216062605C603A
:40350000280000F09CF870BDB0010020032370B5CD1C9D43083506000C2D01D20C2501E0002D01DBA94202D90C23336048E0300000F084F8234B1C681A002100002913D0DE
:403540000B685B1B0DD40B2B02D90B60CC181EE08C4202D1636813601AE04B6863600C0016E00C004968E9E7174C2368002B03D1300000F051F820602900300000F04CF8E2
:40358000431C18D00323C41C9C43A0420DD12560300000F054F8200007220B30231D9043C31A0ED05A42E2500BE0211A300000F033F8431CEBD10C233000336000F03FF869
:4035C000002070BDB0010020AC010020F8B506000C001500002904D11100FFF797FF040018E0002A03D1FFF745FF2C0012E000F027F885420ED929003000FFF787FF071E68
:4036000007D021002A00FEF7EFFE21003000FFF731FF3C002000F8BD002370B5064C050008002360FDF7A8F9431C03D12368002B00D02B6070BDC046E40100207047704755
:403640000B1F1A68101F002A04DA891804390B68D01804387047000000000000039F250D9949411F010900000D0A4F4B20666C6F61743A2025642E2531640D0A0000000052
:403680000D0A5061727365206572726F722028666C6F6174290D0A00256400000D0A4F4B20696E743A2025640D0A00000D0A5061727365206572726F722028696E74290D4C
:4036C0000A000000456E746572206E6578742076616C75653A0D0A0000300F40000400400F40000401000F404E300F402D310F4057320F4031330F4002400F400A410F40BF
:4037000002600F40811F0201042406C80C9A0E011002126414E4161018041A1A1C201EC0209B249B281B2A802C9B3201341E36E03AA03E04544058045B045C015D105F011C
:403740008008811A820184AC851886128702881489028A208B188C098D188F02900E913392709344940295C1973898C0999C9B039C08A009A118A401A608A809A982AD1A59
:40378000B010B113B2FEB3E0B50FB601B808BB28BE41D602D720D804D904DB04DC11DD10DF010005014204020602072809090A050D020E210F08102811011201150117146B
:4037C00018101A051C421D801E222404250B260227282D802E012F08360237283D696011622066806C296D696F1475807603C0FDC2FFC47FCAB0CCE0CEF0D81E0103030C45
:40380000045005050627070A08540A2B104D121019091A021B061C381D021F0D3040310F3403363C38803B023E01403241054210470B481049FF4AFF4BFF4C034E704F481E
:4038400050045409580459045A045B045C115D115F0162C0644065026610671268C069026B126C406D026E406F02BAC0C023C104C250C5DEC6F0C70CC81BC9FFCAFFCBFFE2
:40388000CC22CEF0CF48D004D804DA04DC03DD01DF01E2C0E440E502E610E712E8C0E902EB12EC40ED02EE40EF0207280D020E051B401E051F0124802740376038803A80B1
:4038C0003C043D024004410A458047284801490A4E025220530857045C505D085E026702834086058C108F0890449B289D029E80A001A18BA203A620A70CAE10C060C2D068
:40390000CC30CEC0D077D218D6F0D8105902D640520256406F1083108642AD02D4C0DA80E270EE10010A100A030405060708090A0B0C0E0F101112131415161718191B1C6B
:403940001D1E1F2021222325262728292A2B2E2F3031323334350000161E00003A1D0000F81D0000D01D0000F81D0000C41D0000F81D0000D01D00003A1D00003A1D000090
:40398000C41D0000D01D00007C1E00007C1E00007C1E0000FE1D00003A1D00003A1D0000E41D0000CE1D0000E41D0000C41D0000E41D0000CE1D00003A1D00003A1D00003A
:4039C000C41D0000CE1D00007C1E00007C1E00007C1E0000881E000074210000D2200000D2200000D020000066210000662100005C210000D0200000662100005C2100009F
:403A000066210000D02000006C2100006C2100006C210000F62100004300232D302B2000686C4C0065666745464700303132333435363738394142434445460030313233B7
:403A4000343536373839616263646566000000006E3A0000713A0000743A0000412D46612D66383930313233343536375D002B2D003030007858000020202020202020200F
:403A80002028282828282020202020202020202020202020202020208810101010101010101010101010101004040404040404040404101010101010104141414141410147
:403AC000010101010101010101010101010101010101011010101010104242424242420202020202020202020202020202020202020202101010102000000000000000003F
:403B00000000000000000000000000000000000000000000000000000000000000000000000000000000000000000000000000000000000000000000000000000000000085
:403B40000000000000000000000000000000000000000000000000000000000000000000000000000000000000000000000000000000000000000000000000000000000045
:403B80000000000000000000000000000000000000000000000000000000000000000000000000000000000000000000000000000000000000000000000000000000000005
:403BC000000000000000000000000000000000000000000000000000F8B5C046F8BC08BC9E467047D5020000610A0000F8B5C046F8BC08BC9E467047AD020000103C0000FC
:403C0000C800002098000000880000000000000000000000FF10FF20FF40FF80E8010020006CDC0280BB0000300000000000C05D01000000F00000000404040000000000B8
:403C4000783B0000983B0000B83B000000000000000000000000000000000000183A0000000000000000000000000000000000000000000000000000000000000000000079
:403C800000000000000000000000000000000000000000000000000000000000F4000020773A0000000000000000000000000000000000000000000000000000000000003F
:403CC00000000000000000000000000000000000000000000000000000000000000000000000000000000000000000000000000000000000000000000000000000000000C4
:403D00000000000000000000000000000000000000000000000000000000000000000000000000000000000000000000000000000000000000000000000000000000000083
:403D40000000000000000000000000000000000000000000000000000000000000000000000000000000000000000000000000000000000000000000000000000000000043
:403D80000000000000000000000000000000000000000000000000000000000000000000000000000000000000000000000000000000000000000000000000000000000003
:020000040003F7
:0200000490303A
:020000009295D7
:0200000490402A
:4000000000000000000000000000000000000000000000000000000000000000000000000000000000000000000000000000000000000000000000000000000000000000C0
:400040000000000000000000000000000000000000000000000000000000000000000000000000000000000000000000000000000000000000000000000000000000000080
:0200000490501A
:0C00000000021A1711AA00011A2AA43FDE
:0200000490600A
:0100000001FE
:00000001FF