:4000000000800020110000007D0400007D04000010B500F053FAC04670B5294D12232B6000F090FC012000F0ADFC182000F0A4FB244A254B1A60254A116802230B43136087
:40004000234A244B1A600024234B1C60234A136808218B431360FA20C00000F03FFC204800F080FB1F4A204B1A60204B204A1A60802189001F4A11601F4A1A609B210902A7
:400080001E4A11601E4A1A60802212061D4B1A601D4B1C6042221D4B1A60023A1C4B1A6001321C4B1A601C49082000F031FB082000F022FB194B1C6011232B6070BDC046DE
:4000C000300010400600008004010B4078002E402D3E00007C002E4064F02E406CF02E40DC050000002F7500080301400000014042FF00800003014040FF008004030140C5
:4001000041FF008008010B4000010B403801014030010140040101409D0A00000C020B4010B572B600222D4B1A6001322C4B1A7000240FE02B486200131959000B00411827
:4001400089881A5AC31858880004104300F090F90134E4B2012CEDD922490C312248303000F05CF9214A224B1A60224A224B1A6099231B04214A1360A221C905204A116030
:40018000204A13608422D2031F4B1A6002231F4A13601F4A13601F490B783C22934314221343DBB20B701C4A117816230B43DBB213702023194A1360DB210904184A1160F8
:4001C0002921184A11601849184A1160184A1360FFF722FF00F03CF910BDC0466CF02E401C700F401C2300001C250000000030EE00000240033099000001024000500F4097
:4002000008500F4010500F4018500F402000104000800F4001700F4000700F40000004400800044000010440061C0300080104401801044010B5064C2378002B07D1054B4A
:40024000002B02D0044800E000BF0123237010BD580100200000000088220000084B10B5002B03D00749084800E000BF07480368002B00D110BD064B002BFBD09847F9E711
:40028000000000005C01002088220000C00000200000000010B5064C23785B00054A985A00F07AFC2378013303221340237010BD74010020C4000020F0B5474680B40500F8
:4002C00000241AE0164F63009846DE5BFF239E434346DE530A21280000F090FD89B2114B5B5C1E434346DE530A21280000F000FD85B2002D03D00134E4B2032CE2D90134AA
:40030000E3B207E006495800445AFF22224342520133DBB2032BF5D904BC9046F0BDC046C40000208C22000010B582B062B600F07DFC2E4800F0AEFC00F01EF9642000F047
:40034000F9F92B4800F0C4F92A4800F0C1F90020FFF7B2FF44E000F0A5F9C3B20D2B01D00A2B30D1244B5B78002B39D023480022C254214B5A7001AA214900F085FE012822
:400380001AD1019B002B01DA5B42019301981D4B984203DD1C4900F01BFE0191019B98B2FFF78AFF194C019A1949200000F04AFE200000F08DF902E0164800F089F91648FF
:4003C00000F086F90CE00C4A5278122A08D8541C09494C7009498B54FF23184000F0EAF800F0E0F80028B6D1FAE7C0469502000098220000B422000074010020D001002060
:40040000E02200000F27000010270000B0010020E4220000F022000000230000F0B50025002711E0BB00C658F3B2FF22964308E06A008A181478A419527822700135013BDC
:40044000DBB2002BF4D10137072FEBD9F0BDC0460323044A1360044A13600022034B1A607047C0463000304030003140000E3F4010B50A00002100F0DDFD10BD10B500F0C1
:40048000ADFD03680C2B00D1FEE7FEE710B50300084A1068C318084A9A1A802A02DC054A136005E000F09AFD0C2303600120404210BDC046CC000020E801002070B50F4EAD
:4004C0000F4D13E029686B68AC68002202E001C901C30432A242FAD1E868002202E0002102C304328242FAD11035013E002EE9D100F07AFDFFF718FFFEE7C04601000000F3
:400500007C27000010B50E4A136801218B43136000230AE0032B03D89A000A49505800E009489900094A885001332F2BF2D9FFF7F7FD034A116801230B43136010BDC046BC
:4005400000001040000000007D0400000000002010B500F091F810BD10B500F039F810BD10B5044A1368802109060B431360FFF7EFFF10BD0000244010B5064B1B78002BE4
:4005800004D1FFF7E9FF0122024B1A70FFF7E8FF10BDC04676010020014B18687047C04640032440024B1B681F2018407047C04608032440044B1B681F221340082BF9D022
:4005C000024B18607047C0460802244040022440154A164B1A600023154A13601549164A1160164A16490A6007201649086016490B6006381549086015490A60154A136088
:400600000421154A1160154A1360154A1360154A1360154A1360154A1360154A13601268144B1A807047C0460F000002000024404000244001000A00480024400700008052
:4006400000032440040324401003244044002440000224400402244050002440880E2440C80E2440480F2440080F2440C80F2440880F244078010020064A1168064B0B4067
:40068000902109040B431360044B1A88044B1A607047C04600010240FFFF0FFF78010020880F244010B5FFF77DFF002802D0FFF773FF00E00020054B1A68D8239B001A4204
:4006C00003D01A00014B1A60002010BDC00F244070B50500002402E0FFF76CFF0134285D0028F9D170BDC046024B1B68012018407047C0460C002E401F2318401E3B834081
:40070000014A13607047C04600E100E001BE704770B504000D001F2802D90020FFF7F6FF1034A40080239B059C4664442068256070BDC04610B5040006E0084B586800F0FD
:40074000C7FA074B9C46644480231B029C42F4D8024B9868604300F0BBFA10BDD00000200080FFFF10B5034B1B7B584300F0B0FA10BDC046D0000020F0B557464E46C0B4B7
:4007800083B0040000F0ADFA0190E71E2D2F74D83F4B1B78DBB29C4208D83E4B1B78DBB29A463D4B1B78DBB2994631E03B4B1B78DBB29C4208D83A4B1B78DBB29A46394B37
:4007C0001B78DBB2994623E0374B1B78DBB29C4208D8364B1B78DBB29A46354B1B78DBB2994615E0334B1B78DBB29C4208D8324B1B78DBB29A46314B1B78DBB2994607E067
:400800002F4B1B78DBB29A462E4B1B78DBB299462D4BDE5D2F2E09D92A2C07D919222B4B1A60052000F054FA192503E0274B1D683F231D40B54206D9234BDA5D234B1A60D6
:40084000052000F045FA1F4B9C4664442378DBB21F4A13601F4B52461A601F4B4A461A600520FFF77FFFB5420AD2174BDA5D174B1A60052000F02CFA02E00020FFF746FFE3
:40088000019800F032FA03B00CBC91469A46F0BD40F3FF0F41F3FF0F42F3FF0F43F3FF0F44F3FF0F45F3FF0F46F3FF0F47F3FF0F48F3FF0F49F3FF0F4AF3FF0F4BF3FF0F56
:4008C0004CF3FF0F4DF3FF0F6C2500002CFF0B4028FF0B401CFF0B4020FF0B4010B504000F4A116801230B4313600E4A0E4B1A600E4A1368802109020B431360002809D127
:4009000000200CE00120FFF72DFFFFF7EDFE002804D1013C002CF5D1102000E0002010BD60F02E400220000078002E4010002E40034B1868C0231B02184000D0012070474C
:4009400000010B4010B50D4B1A6801218A431A601A68022082431A60094A10683024A043203C204310601068093CA043014311601A68802109060A431A6010BD00F02E4096
:4009800000FF2E4070B51D4B1B6801241C40002802D0012816D02BE0184B19680122914319601968022081431960154B19682E3081432038014319601968093881430A4306
:4009C0001A6018E00D4B1A6802218A431A600C4A10680725A84301431160116830208143103801431160196801220A431A6002E00020FFF78BFE200070BDC04600F02E4080
:400A000000FF2E4010B500F06CF9044A1368C02109020B43136000F068F910BD00010B4010B500F05EF908490A68084B1A408024E40122430A600A681340802212021343AA
:400A40000B6000F052F910BD00010B40FF3FFFFF70B5050000F045F90400FFF769FF002803D0FFF7DDFF012100E0002108482840084A1568084B2B4018431060136801291C
:400A800001D1FFF7BFFF200000F02FF970BDC0460404040010020B40FBFBFBFF10B5244B1B685B0715D5234B5B685B070ED5224B596A042001401F4C62688A4362605A6A56
:400AC00082435A629B69002B00D098470420FFF7BFFF174B1B685B0518D5164B5B685B0510D5154B596A8022D2001140114842688A434260596A114A0A405A62DB69002B37
:400B000000D098478020C000FFF7A2FF084B1B685B030CD5074B5B685B0304D5064B1B6A002B00D098478020C002FFF791FF10BD10020B40E40000207C010020FFFBFFFF53
:400B400010B500F0CEF80B4A117820230B43DBB2137009490A7810231A43D2B20A70074A11780B43DBB2137000F0BFF8FF2000F09FF810BD91000F4092000F4090000F4027
:400B8000014B1878C0B2704762000F40014B1878C0B2704760000F40034B1B785B07FBD5024B18807047C04662000F4084100F4010B501E00E4B1B880E4B1B789B06F9D486
:400BC00000F08FF80C490A78012401231A43D2B20A700A78A2430A70084A11780B43DBB213701378A343137000F07FF810BDC046A4100F4060000F4092000F4093000F4046
:400C000010B51F22064B1A70FFF7D2FFFFF7B8FFFFF7BCFF0023034A1370034A137010BD81000F4082000F4080000F4010B5064B1B78002B04D1FFF7E3FF0122024B1A7033
:400C4000FFF77EFF10BDC046A4010020014B58647047C0460000002010B5040000F041F8044A1168044B0B40A4031C43146000F03CF810BD00E400E0FF3FFFFF0222014B56
:400C80001A60704700E100E00222014B1A60704780E100E010B50400FFF7F6FF2000FFF7D5FF0320FFF7D8FFFFF7E8FF10BDC046044B1B68002BFBDB0002034B1843014B58
:400CC000186070470000014040000080000000000230800803D00138FDD1C046C046C0467047EFF3108072B6704780F310887047002243088B4274D303098B425FD3030ABB
:400D00008B4244D3030B8B4228D3030C8B420DD3FF22090212BA030C8B4202D31212090265D0030B8B4219D300E0090AC30B8B4201D3CB03C01A5241830B8B4201D38B030F
:400D4000C01A5241430B8B4201D34B03C01A5241030B8B4201D30B03C01A5241C30A8B4201D3CB02C01A5241830A8B4201D38B02C01A5241430A8B4201D34B02C01A5241BA
:400D8000030A8B4201D30B02C01A5241CDD2C3098B4201D3CB01C01A524183098B4201D38B01C01A524143098B4201D34B01C01A524103098B4201D30B01C01A5241C30809
:400DC0008B4201D3CB00C01A524183088B4201D38B00C01A524143088B4201D34B00C01A5241411A00D20146524110467047FFE701B5002000F0F0F802BDC0460029F7D0F5
:400E000076E7704703460B437FD4002243088B4274D303098B425FD3030A8B4244D3030B8B4228D3030C8B420DD3FF22090212BA030C8B4202D31212090265D0030B8B42BD
:400E400019D300E0090AC30B8B4201D3CB03C01A5241830B8B4201D38B03C01A5241430B8B4201D34B03C01A5241030B8B4201D30B03C01A5241C30A8B4201D3CB02C01AD6
:400E80005241830A8B4201D38B02C01A5241430A8B4201D34B02C01A5241030A8B4201D30B02C01A5241CDD2C3098B4201D3CB01C01A524183098B4201D38B01C01A52413C
:400EC00043098B4201D34B01C01A524103098B4201D30B01C01A5241C3088B4201D3CB00C01A524183088B4201D38B00C01A524143088B4201D34B00C01A5241411A00D28D
:400F000001465241104670475DE0CA0F00D04942031000D34042534000229C4603098B422DD3030A8B4212D3FC22890112BA030A8B420CD3890192118B4208D38901921193
:400F40008B4204D389013AD0921100E08909C3098B4201D3CB01C01A524183098B4201D38B01C01A524143098B4201D34B01C01A524103098B4201D30B01C01A5241C308C1
:400F80008B4201D3CB00C01A524183088B4201D38B00C01A5241D9D243088B4201D34B00C01A5241411A00D20146634652415B10104601D34042002B00D549427047634633
:400FC0005B1000D3404201B5002000F005F802BD0029F8D016E770477047C046014B18687047C0464C0100200E4B70B500251E000D4CE41AA410A54204D0AB00F3589847FB
:401000000135F8E701F0A8FB084B00251E00084CE41AA410A54204D0AB00F35898470135F8E770BD6427000064270000642700006C27000003008218934202D01970013364
:40104000FAE770470EB410B59DB002A9029008610B48822488604861012040421FABC881084804CBA400006801938C8100F0A0F80023029A13701DB010BC08BC03B0184719
:40108000FFFFFF7F4C0100200EB4812370B59DB002AC21AD9B0040CDA3810290069000F01DF80B4B606063620023606109486363A364013BE38132002B0021000068019501
:4010C00000F0D0F91DB070BC08BC03B01847C046D91000004C010020002070470023C25C0133002AFBD1581E70470000F0B58E6885B007000C00039201939E4243D89023E3
:401100008A89DB001A423ED003250969236801985B1A029363695D43EB0F5D19029B6D1001331B18AB4200D91D00530510D52900380001F003F8061E14D0029A216900F0A7
:4011400092FFA289194B134080221343A38112E02A00380001F052F8061E0CD12169380000F0A0FF0C23402201203B60A38940421343A38117E0029B2661F6182660656115
:40118000019EED1AA560019BB34200D21E0032000399206800F070FF0020A3689B1BA36023689E19266005B0F0BDC0467FFBFFFFF0B59FB0029005938B890F0016001B064A
:4011C00010D50B69002B0DD1402100F0B7FF38603861002804D10C23029A01381360D8E040237B61002306AD6B6120336B761033AB7634002378002B03D1A31B049312D0AB
:4012000003E0252BF9D00134F4E7A31B320039000298FFF76BFF431C00D1B4E06A69049B944663446B612378002B00D1ABE00122002352426A6002A95432521801342B60DB
:40124000EB60AB601370AB65534E21780522300000F0FEFE002807D00123801B83402A68013413432B60EFE72B68DA0604D55322202102A8121811701A0704D553222B21F7
:4012800002A81218117022782A2A03D0099B00200A210EE0059A111D12680591002A01DB099204E05242EA60022213432B6001340BE02278303A092A04D84B4301349B184D
:4012C0000120F6E7002800D0099323782E2B1ED163782A2B0AD1059B02341A1D1B680592002B01DA01235B42079310E000230A201A0001346B6021783039092904D84243FA
:40130000013452180123F6E7002B00D00792234E21780322300000F09BFE002806D04023801B83402A68013413432B60217806221B48661C297600F08BFE002812D0194BFE
:40134000002B06D10722059B073393430833059314E005AB00933A00134B2900029800E000BF07E005AB00933A000F4B2900029800F064FA0390039B013304D06B69039A15
:401380009B186B6135E7BB890B985B0601D5012040421FB0F0BDC0469C250000A2250000A625000000000000ED10000070B50E0014004B1C02D10120404232E0938920226B
:4013C0009343626BA381CDB26368002A0ED0A26B934205DA2368013B23601E70636810E0210000F0F7FD0028F4D0E4E721692268002908D0914206D2511E0878854202D17B
:40140000216001330BE023642300443363630323A36323004633E2631E70236001232800636070BD10B50C00496B00290ED023004433994201D000F035FE0020236C606364
:401440006360834202D0E36B236009E0236920222360002301206360A38940421343A38110BD0000F0B5B84C0D00A54403930023009048934993862005AB4A93BE23400018
:40148000019202A9B14A5B000918CA5004331E00AF4A02A90918CA50019B1A78002A00D149E10821AB4C23689B185B780B4023D06B68002B11DD2B6821681A788A18082102
:4014C00052780A4214D0499A01330292013249926A682B60013A6A60EAE7862202AB52009B189B5929000098029398470028E2D0019F01370197CFE7019914004F1C252A1B
:4015000055D1479345934B782A2B02D11A3B459301373C000A2221780B00303B092B07D8479B013401935343303B59184791F2E7894F0322380000F08BFD002807D001235B
:40154000C01B8340459A0134134301924593671C2478672C18D8652C00D38BE0472C08D8452C00D386E0002C00D1E6E0252C1ED082E05B2C56D002D8582C41D07CE0632C1F
:401580005ED0642C45D077E0702C33D007D86E2C5ED040D8692C6FD10023469340E0752C37D0782C2CD00223732C47D064E06B68002B0EDD2B681A78944200D0BBE00133C8
:4015C0006A682B60499B013A019301336A60499390E7862202AB52009B189B5929000098019398470028E5D04898002800D09EE00138A4E0459B01932023019A1343459398
:40160000459B01938023019A9B0013434593102302E00A2300E00823469304236E2C0DDC03230BE0390005A800F08CFB459B070001934023019A1343459301234B931FE049
:40164000459B01934023019A134345930023F5E74599CB0600D54DE7039B499AC80704D5191D03911B681A8044E7191D03911B681A603FE70523E1E703234B9307334693E4
:401680006B68002B04DD459B01935B0617D51FE0862202AB52009B189B5929000098019398470028EFD09FE7499A0192013249926A68013A6A60002A14DD01332B602B68D4
:4016C00024491A7809688A18082152780A42EBD14B9B022B12DC03AB2A0045A9009800F0CFF91EE0862202AB52009B189B5929000098019398470028E1D075E7042B06DC00
:4017000003AB2A0045A9009800F01CFA09E0134B002B00D1EEE603AB2A0045A9009800E000BF012807D0022800D0E3E65CE7AB895B0604D501E0489801E001204042A723AE
:401740009B009D44F0BDC04664FDFFFFAD1300002514000050010020A225000000000000F7B5170001938A680B6900900C00934200DA130022003B6043321278002A01D0D8
:4017800001333B6023689B0602D53B6802333B60062523681D401ED0230043331B785A1E9341226892061CD53020E1184331087021005A1C45310978A218433202331170B0
:4017C0000FE022000123193201990098089EB047431C0ED00135E3683A689B1A9D42F0DBDAE72200019943320098089DA847431C02D10120404220E006232068E1683A684C
:4018000003400025042B03D18D1AEB43DB171D40A3682269934201DD9B1AED180027BD420AD0220001231A3201990098089EB047431CDED00137F2E70020FEBDF0B58BB0DC
:4018400006920A0043320793059004920A7E0C00109B6E2A00D1ABE011D8632A22D009D8002A00D1B5E0582A00D0C5E045310A70814A4FE0642A1DD0692A1BD0BCE0732A6D
:4018800000D1AAE009D86F2A29D0702A00D0B3E0202209680A43226037E0752A1FD0782A33D0A9E00E001A684236111D196013683370A4E021681A68080606D4490604D59C
:4018C000111D19600023D55E02E0111D19601568002D3BDA2D23049A6D42137036E021681A68080606D4490604D51568111D1960ADB202E0111D196015685F4B227E0393E9
:4019000008276F2A1DD00A271BE022007821453211705A4A19680392081D226818600D68100602D4500600D5ADB2D30702D520231A4322601027002D03D1202322689A4392
:4019400022602300002243331A7002E00A274A4B03936368A360002B09DB0422216891432160002D05D1049E002B11D07BE0002D79D0049E28003900FFF740FA039B013EEF
:401980005B5C280033703900FFF7B2F9051EF1D1082F09D12368DB0706D563682269934202DC3023013E3370049B9B1B23612BE009681A68080607D4490605D5111D1960BF
:4019C0001368A28A1A8004E0111D1960136862691A600023049E236116E01A68111D1960166800216268300000F032FB002801D0801B6060636803E02600423632700123D7
:401A000023610023049A1370079B09AA00932100069B0598FFF7A4FE431C02D10120404227E02369320006990598079DA847431CF4D0236800259B070FD4099BE068984278
:401A400017DA180015E022000123193206990598079EB047431CE1D00135E368099A9B1A9D42F0DBE9E72600039B42361B7833708EE70BB0F0BDC046AD250000BE25000092
:401A8000F7B515008A6801900C00002A06D18A69511E8A41012152420A43A2602268D20603D41A68111D196017680026A06900281ED1102223680136134203D12B681B7839
:401AC0003B7001372A686B6801322A60A268013B013A6B60A260002A1ED0002BE6DCC0235B00E3582900019898470028DED013E0012806D12B6862691B78D35C002BD8D1B7
:401B00001AE0022808D12B680D4A1B781268D31808225B781342CCD010232268134006D1E2680132E260A269002A00D03B70236900209E19266101E0002EEDD1FEBDC0460A
:401B400050010020F0B50C008DB00293774B0590160009AA23CB23C2754B0693A369032B01D0744B0693AE220020A3685200591E0490914205D95E3BFF3B04935E23FF339C
:401B8000A36023001C330193D023002722681B0113432360019B0393336809A81978BB000222185800F054FA00283BD0012F0DD16368002B06D1083322686360F933FF33F3
:401BC000134323605C4B226813400EE0022F0DD1C02180222368C90019409200914224D1F13AFF3A6260F03213432360A3685A1EA260002B16D0039B5D1C33685A1C326090
:401C00001B78039A039513707368013B7360002B08DCC0235B00E3583100059807939847002847D10137032FB6D16368002B01D10A3363601021002763686069C91A3F4B4E
:401C4000C91800F07FF8039DA368002B33D0326860691178405C00282DD030290DD1802021680001014208D0049A0137002A0BD0013A01330492A36006E02168304B0B4002
:401C8000236013782B7001357368013B7360002B03DD33680133336008E0C0235B00E3583100059803939847002804D1A368013BA360C9E700272368DB050ED5019B9D4263
:401CC00007D9BE23013D5B002978E358320005989847019B01209D4225D0102223681A401AD12A70636801990598069EB047029B22681B68910607D4D10705D502991A1D96
:401D00000A601B68188004E002991A1D0A601B681860E3680133E3600020019BED1A2369ED195D1925610DB0F0BDC046D0250000A91D0000CD1E0000FFFAFFFFDC250000E2
:401D4000FFF6FFFF70B50B785E2B02D04A1C002502E001254B788A1C0100441CFF340D700131A142FBD1002B01D1501E1BE001214D401100C5540C784A1C2D2C07D05D2C9D
:401D800010D0002C01D02300F3E708000BE04E785D2EF8D0B342F6DC02310133C5549E42FBDCE8E7100070BDF0B51E00454B87B01B680192029308220B00059003911C780C
:401DC00002995D1C09194878104001D02B00F6E72D2C04D19D1C5C780123009304E000902B2C01D15C789D1C002E02D0102E0AD162E0302C5ED120222B789343582B54D1DF
:401E000010266C780235009F31007B1E9F412E4BFF183800FEF7F2FF380004913100FEF767FF00230322070094461800029A121951780422114201D0303C07E0624611409A
:401E400017D03722012900D02032A41AA64210DD5A1C0BD0B84207D802D1049B9C4203DC70430123201801E001235B422C780135DCE75A1C0BD10098059A431E9841124B7C
:401E8000C01822231360019B002B0AD117E0009A002A00D04042019A002A10D0039A002B00D06A1E019B1A6009E03024002EAAD10826A8E70A26A6E7302C9CD0A3E707B09F
:401EC000F0BDC04650010020FFFFFF7FF0B51E003F4B87B01B680491029317000B00082105901C78029A5D1C121952780A4001D02B00F6E72D2C04D19D1C5C7801230193FD
:401F000004E001922B2C01D15C789D1C002E02D0102E0AD157E0302C53D120222B789343582B49D110266C780235012031004042FEF7DEFE0390012031004042FEF75EFF9D
:401F400000238C461800029A121951780422114201D0303C07E00322114017D03432012900D02032A41AA64210DD002B09DB039B984206D801D1644503DC704301232018B7
:401F800001E001235B422C780135DCE7002B07DA22230120059A40421360002F09D115E0019A002A00D04042002F0FD0049A002B00D06A1E3A6009E03024002EB5D10826DF
:401FC000B3E70A26B1E7302CA7D0AEE707B0F0BD500100200B00F7B54D6B44330C009D421BD18026F600310000F0A8F8002802D10120404225E023006063A66346331A788B
:40200000104BC254230045331A780F4BC2542A780E4BC254C018206012E08E6B290073001A00019300F0EAF8051EE1D0871901003200380000F017F8019B27606563A36353
:402040000020FEBDFF030000FE030000FD030000C9B28218904204D003788B4202D00130F8E700207047002310B59A4203D0CC5CC4540133F9E710BD10B5884202D98B1801
:40208000984201D3002305E09B1A013A08D3995C8154FAE7934203D0CC5CC4540133F9E710BD000070B50500002944D00C1F2368002B00DAE418280000F0D8F81E4A136842
:4020C0001100002B02D16360146031E0A3420DD92268A018834203D118685B688218226063600C6024E0A24203D813005A68002AF9D11E689819A0420BD121687118581852
:402100001960824214D110685268411819605A600EE0A04202D90C232B6009E021686018824203D1106852684118216062605C60280000F09CF870BDAC010020032370B55D
:40214000CD1C9D43083506000C2D01D20C2501E0002D01DBA94202D90C23336048E0300000F084F8234B1C681A002100002913D00B685B1B0DD40B2B02D90B60CC181EE07F
:402180008C4202D1636813601AE04B6863600C0016E00C004968E9E7174C2368002B03D1300000F051F820602900300000F04CF8431C18D00323C41C9C43A0420DD125606D
:4021C000300000F054F8200007220B30231D9043C31A0ED05A42E2500BE0211A300000F033F8431CEBD10C233000336000F03FF8002070BDAC010020A8010020F8B5060018
:402200000C001500002904D11100FFF797FF040018E0002A03D1FFF745FF2C0012E000F027F885420ED929003000FFF787FF071E07D021002A00FFF716FF21003000FFF765
:4022400031FF3C002000F8BD002370B5064C050008002360FEF71AF9431C03D12368002B00D02B6070BDC046E4010020704770470B1F1A68101F002A04DA891804390B68CD
:40228000D01804387047000000000000039F250D9949411F01090000435938434B49542D3034322055415254202B20375345470D0A000000456E74657220696E74656765D3
:4022C000722028302E2E393939392920616E6420707265737320456E7465723A0D0A0000256400000D0A4F4B3A2025640D0A00000D0A5061727365206572726F720D0A00D5
:40230000456E74657220696E74656765722028302E2E39393939293A0D0A000000300F40000400400F400004811F0201042406C80C9A0E011002126414E4161018041A1A05
:402340001C201EC0209B249B281B2A802C9B3201341E36E03AA03E04544058045B045C015D105F018008811A820184AC851886128702881489028A208B188C098D188F0212
:40238000900E913392709344940295C1973898C0999C9B039C08A009A118A401A608A809A982AD1AB010B113B2FEB3E0B50FB601B808BB28BE41D602D720D804D904DB04B5
:4023C000DC11DD10DF010005014204020602072809090A050D020E210F081028110112011501171418101A051C421D801E222404250B260227282D802E012F08360237288F
:402400003D696011622066806C296D696F1475807603C0FDC2FFC47FCAB0CCE0CEF0D81E0103030C045005050627070A08540A2B104D121019091A021B061C381D021F0D69
:402440003040310F3403363C38803B023E01403241054210470B481049FF4AFF4BFF4C034E704F4850045409580459045A045B045C115D115F0162C064406502661067121E
:4024800068C069026B126C406D026E406F02BAC0C023C104C250C5DEC6F0C70CC81BC9FFCAFFCBFFCC22CEF0CF48D004D804DA04DC03DD01DF01E2C0E440E502E610E712AA
:4024C000E8C0E902EB12EC40ED02EE40EF0207280D020E051B401E051F0124802740376038803A803C043D024004410A458047284801490A4E025220530857045C505D08A8
:402500005E026702834086058C108F0890449B289D029E80A001A18BA203A620A70CAE10C060C2D0CC30CEC0D077D218D6F0D8105902D640520256406F1083108642AD0255
:40254000D4C0DA80E270EE10010A100A01000F404E300F402D310F4057320F4031330F4002400F400A410F4002600F40030405060708090A0B0C0E0F1011121314151617C3
:4025800018191B1C1D1E1F2021222325262728292A2B2E2F3031323334354300232D302B2000686C4C006566674546470030313233343536373839414243444546003031FA
:4025C00032333435363738396162636465660000EE250000F1250000F4250000412D46612D66383930313233343536375D002B2D00303000785800002020202020202020FE
:4026000020282828282820202020202020202020202020202020202088101010101010101010101010101010040404040404040404041010101010101041414141414101DB
:4026400001010101010101010101010101010101010101101010101010424242424242020202020202020202020202020202020202020210101010200000000000000000D3
:40268000000000000000000000000000000000000000000000000000000000000000000000000000000000000000000000000000000000000000000000000000000000001A
:4026C00000000000000000000000000000000000000000000000000000000000000000000000000000000000000000000000000000000000000000000000000000000000DA
:402700000000000000000000000000000000000000000000000000000000000000000000000000000000000000000000000000000000000000000000000000000000000099
:40274000000000000000000000000000000000000000000000000000F8B5C046F8BC08BC9E4670475D02000005050000F8B5C046F8BC08BC9E467047350200009027000076
:40278000C000002098000000900000000000000000000000FF10FF20FF40FF80E8010020010000000000E02EC05D00001800000000366E01F0000000040404000000000037
:4027C000F82600001827000038270000000000000000000000000000000000009A25000000000000000000000000000000000000000000000000000000000000000000005E
:4028000000000000000000000000000000000000000000000000000000000000EC000020F72500000000000000000000000000000000000000000000000000000000000070
:402840000000000000000000000000000000000000000000000000000000000000000000000000000000000000000000000000000000000000000000000000000000000058
:402880000000000000000000000000000000000000000000000000000000000000000000000000000000000000000000000000000000000000000000000000000000000018
:4028C00000000000000000000000000000000000000000000000000000000000000000000000000000000000000000000000000000000000000000000000000000000000D8
:402900000000000000000000000000000000000000000000000000000000000000000000000000000000000000000000000000000000000000000000000000000000000097
:020000040003F7
:0200000490303A
:0200000074FB8F
:0200000490402A
:4000000000000000000000000000000000000000000000000000000000000000000000000000000000000000000000000000000000000000000000000000000000000000C0
:400040000000000000000000000000000000000000000000000000000000000000000000000000000000000000000000000000000000000000000000000000000000000080
:0200000490501A
:0C00000000021A1711AA00011A2386A59D
:0200000490600A
:0100000001FE
:00000001FF